{
  "contractName": "EstateToken",
  "abi": [
    {
      "inputs": [],
      "stateMutability": "nonpayable",
      "type": "constructor"
    },
    {
      "anonymous": false,
      "inputs": [
        {
          "indexed": true,
          "internalType": "address",
          "name": "owner",
          "type": "address"
        },
        {
          "indexed": true,
          "internalType": "address",
          "name": "approved",
          "type": "address"
        },
        {
          "indexed": true,
          "internalType": "uint256",
          "name": "tokenId",
          "type": "uint256"
        }
      ],
      "name": "Approval",
      "type": "event"
    },
    {
      "anonymous": false,
      "inputs": [
        {
          "indexed": true,
          "internalType": "address",
          "name": "owner",
          "type": "address"
        },
        {
          "indexed": true,
          "internalType": "address",
          "name": "operator",
          "type": "address"
        },
        {
          "indexed": false,
          "internalType": "bool",
          "name": "approved",
          "type": "bool"
        }
      ],
      "name": "ApprovalForAll",
      "type": "event"
    },
    {
      "anonymous": false,
      "inputs": [
        {
          "indexed": true,
          "internalType": "address",
          "name": "from",
          "type": "address"
        },
        {
          "indexed": true,
          "internalType": "address",
          "name": "to",
          "type": "address"
        },
        {
          "indexed": true,
          "internalType": "uint256",
          "name": "tokenId",
          "type": "uint256"
        }
      ],
      "name": "Transfer",
      "type": "event"
    },
    {
      "inputs": [
        {
          "internalType": "address",
          "name": "to",
          "type": "address"
        },
        {
          "internalType": "uint256",
          "name": "tokenId",
          "type": "uint256"
        }
      ],
      "name": "approve",
      "outputs": [],
      "stateMutability": "nonpayable",
      "type": "function"
    },
    {
      "inputs": [
        {
          "internalType": "address",
          "name": "owner",
          "type": "address"
        }
      ],
      "name": "balanceOf",
      "outputs": [
        {
          "internalType": "uint256",
          "name": "",
          "type": "uint256"
        }
      ],
      "stateMutability": "view",
      "type": "function",
      "constant": true
    },
    {
      "inputs": [
        {
          "internalType": "uint256",
          "name": "tokenId",
          "type": "uint256"
        }
      ],
      "name": "getApproved",
      "outputs": [
        {
          "internalType": "address",
          "name": "",
          "type": "address"
        }
      ],
      "stateMutability": "view",
      "type": "function",
      "constant": true
    },
    {
      "inputs": [
        {
          "internalType": "address",
          "name": "owner",
          "type": "address"
        },
        {
          "internalType": "address",
          "name": "operator",
          "type": "address"
        }
      ],
      "name": "isApprovedForAll",
      "outputs": [
        {
          "internalType": "bool",
          "name": "",
          "type": "bool"
        }
      ],
      "stateMutability": "view",
      "type": "function",
      "constant": true
    },
    {
      "inputs": [],
      "name": "name",
      "outputs": [
        {
          "internalType": "string",
          "name": "",
          "type": "string"
        }
      ],
      "stateMutability": "view",
      "type": "function",
      "constant": true
    },
    {
      "inputs": [
        {
          "internalType": "uint256",
          "name": "tokenId",
          "type": "uint256"
        }
      ],
      "name": "ownerOf",
      "outputs": [
        {
          "internalType": "address",
          "name": "",
          "type": "address"
        }
      ],
      "stateMutability": "view",
      "type": "function",
      "constant": true
    },
    {
      "inputs": [
        {
          "internalType": "address",
          "name": "from",
          "type": "address"
        },
        {
          "internalType": "address",
          "name": "to",
          "type": "address"
        },
        {
          "internalType": "uint256",
          "name": "tokenId",
          "type": "uint256"
        }
      ],
      "name": "safeTransferFrom",
      "outputs": [],
      "stateMutability": "nonpayable",
      "type": "function"
    },
    {
      "inputs": [
        {
          "internalType": "address",
          "name": "from",
          "type": "address"
        },
        {
          "internalType": "address",
          "name": "to",
          "type": "address"
        },
        {
          "internalType": "uint256",
          "name": "tokenId",
          "type": "uint256"
        },
        {
          "internalType": "bytes",
          "name": "_data",
          "type": "bytes"
        }
      ],
      "name": "safeTransferFrom",
      "outputs": [],
      "stateMutability": "nonpayable",
      "type": "function"
    },
    {
      "inputs": [
        {
          "internalType": "address",
          "name": "operator",
          "type": "address"
        },
        {
          "internalType": "bool",
          "name": "approved",
          "type": "bool"
        }
      ],
      "name": "setApprovalForAll",
      "outputs": [],
      "stateMutability": "nonpayable",
      "type": "function"
    },
    {
      "inputs": [
        {
          "internalType": "bytes4",
          "name": "interfaceId",
          "type": "bytes4"
        }
      ],
      "name": "supportsInterface",
      "outputs": [
        {
          "internalType": "bool",
          "name": "",
          "type": "bool"
        }
      ],
      "stateMutability": "view",
      "type": "function",
      "constant": true
    },
    {
      "inputs": [],
      "name": "symbol",
      "outputs": [
        {
          "internalType": "string",
          "name": "",
          "type": "string"
        }
      ],
      "stateMutability": "view",
      "type": "function",
      "constant": true
    },
    {
      "inputs": [
        {
          "internalType": "address",
          "name": "from",
          "type": "address"
        },
        {
          "internalType": "address",
          "name": "to",
          "type": "address"
        },
        {
          "internalType": "uint256",
          "name": "tokenId",
          "type": "uint256"
        }
      ],
      "name": "transferFrom",
      "outputs": [],
      "stateMutability": "nonpayable",
      "type": "function"
    },
    {
      "inputs": [
        {
          "internalType": "uint256",
          "name": "_tokenId",
          "type": "uint256"
        }
      ],
      "name": "tokenURI",
      "outputs": [
        {
          "internalType": "string",
          "name": "",
          "type": "string"
        }
      ],
      "stateMutability": "view",
      "type": "function",
      "constant": true
    },
    {
      "inputs": [],
      "name": "getId",
      "outputs": [
        {
          "internalType": "uint256",
          "name": "",
          "type": "uint256"
        }
      ],
      "stateMutability": "view",
      "type": "function",
      "constant": true
    },
    {
      "inputs": [
        {
          "internalType": "address",
          "name": "_lister",
          "type": "address"
        },
        {
          "internalType": "string",
          "name": "ipfs_hash",
          "type": "string"
        },
        {
          "internalType": "string",
          "name": "_metadata",
          "type": "string"
        }
      ],
      "name": "mint",
      "outputs": [],
      "stateMutability": "nonpayable",
      "type": "function"
    },
    {
      "inputs": [
        {
          "internalType": "uint256",
          "name": "_tokenId",
          "type": "uint256"
        },
        {
          "internalType": "address",
          "name": "_address",
          "type": "address"
        }
      ],
      "name": "setTokenFractions",
      "outputs": [],
      "stateMutability": "nonpayable",
      "type": "function"
    },
    {
      "inputs": [
        {
          "internalType": "uint256",
          "name": "_tokenId",
          "type": "uint256"
        }
      ],
      "name": "getOwner",
      "outputs": [
        {
          "internalType": "address",
          "name": "",
          "type": "address"
        }
      ],
      "stateMutability": "view",
      "type": "function",
      "constant": true
    },
    {
      "inputs": [
        {
          "internalType": "uint256",
          "name": "_tokenId",
          "type": "uint256"
        }
      ],
      "name": "getContract",
      "outputs": [
        {
          "internalType": "address",
          "name": "",
          "type": "address"
        }
      ],
      "stateMutability": "view",
      "type": "function",
      "constant": true
    }
  ],
  "bytecode": "0x608060405260405180602001604052806000815250600a90805190602001906200002b929190620000e0565b503480156200003957600080fd5b506040518060400160405280600681526020017f45737461746500000000000000000000000000000000000000000000000000008152506040518060400160405280600381526020017f45535400000000000000000000000000000000000000000000000000000000008152508160009080519060200190620000be929190620000e0565b508060019080519060200190620000d7929190620000e0565b505050620001f5565b828054620000ee9062000190565b90600052602060002090601f0160209004810192826200011257600085556200015e565b82601f106200012d57805160ff19168380011785556200015e565b828001600101855582156200015e579182015b828111156200015d57825182559160200191906001019062000140565b5b5090506200016d919062000171565b5090565b5b808211156200018c57600081600090555060010162000172565b5090565b60006002820490506001821680620001a957607f821691505b60208210811415620001c057620001bf620001c6565b5b50919050565b7f4e487b7100000000000000000000000000000000000000000000000000000000600052602260045260246000fd5b61288180620002056000396000f3fe608060405234801561001057600080fd5b50600436106101165760003560e01c80636ebc8c86116100a2578063a22cb46511610071578063a22cb465146102f1578063b88d4fde1461030d578063c41a360a14610329578063c87b56dd14610359578063e985e9c51461038957610116565b80636ebc8c861461025757806370a082311461028757806395d89b41146102b757806399071190146102d557610116565b8063095ea7b3116100e9578063095ea7b3146101b557806323b872dd146101d157806342842e0e146101ed5780635d1ca631146102095780636352211e1461022757610116565b806301496e451461011b57806301ffc9a71461013757806306fdde0314610167578063081812fc14610185575b600080fd5b61013560048036038101906101309190611b8f565b6103b9565b005b610151600480360381019061014c9190611b14565b61040f565b60405161015e91906122de565b60405180910390f35b61016f6104f1565b60405161017c91906122f9565b60405180910390f35b61019f600480360381019061019a9190611b66565b610583565b6040516101ac9190612277565b60405180910390f35b6101cf60048036038101906101ca9190611ad8565b610608565b005b6101eb60048036038101906101e69190611953565b610720565b005b61020760048036038101906102029190611953565b610780565b005b6102116107a0565b60405161021e91906124db565b60405180910390f35b610241600480360381019061023c9190611b66565b6107b1565b60405161024e9190612277565b60405180910390f35b610271600480360381019061026c9190611b66565b610863565b60405161027e9190612277565b60405180910390f35b6102a1600480360381019061029c91906118ee565b6108a0565b6040516102ae91906124db565b60405180910390f35b6102bf610958565b6040516102cc91906122f9565b60405180910390f35b6102ef60048036038101906102ea9190611a59565b6109ea565b005b61030b60048036038101906103069190611a1d565b610a90565b005b610327600480360381019061032291906119a2565b610c11565b005b610343600480360381019061033e9190611b66565b610c73565b6040516103509190612277565b60405180910390f35b610373600480360381019061036e9190611b66565b610c85565b60405161038091906122f9565b60405180910390f35b6103a3600480360381019061039e9190611917565b610d0b565b6040516103b091906122de565b60405180910390f35b806009600084815260200190815260200160002060006101000a81548173ffffffffffffffffffffffffffffffffffffffff021916908373ffffffffffffffffffffffffffffffffffffffff1602179055505050565b60007f80ac58cd000000000000000000000000000000000000000000000000000000007bffffffffffffffffffffffffffffffffffffffffffffffffffffffff1916827bffffffffffffffffffffffffffffffffffffffffffffffffffffffff191614806104da57507f5b5e139f000000000000000000000000000000000000000000000000000000007bffffffffffffffffffffffffffffffffffffffffffffffffffffffff1916827bffffffffffffffffffffffffffffffffffffffffffffffffffffffff1916145b806104ea57506104e982610d9f565b5b9050919050565b6060600080546105009061271f565b80601f016020809104026020016040519081016040528092919081815260200182805461052c9061271f565b80156105795780601f1061054e57610100808354040283529160200191610579565b820191906000526020600020905b81548152906001019060200180831161055c57829003601f168201915b5050505050905090565b600061058e82610e09565b6105cd576040517f08c379a00000000000000000000000000000000000000000000000000000000081526004016105c49061243b565b60405180910390fd5b6004600083815260200190815260200160002060009054906101000a900473ffffffffffffffffffffffffffffffffffffffff169050919050565b6000610613826107b1565b90508073ffffffffffffffffffffffffffffffffffffffff168373ffffffffffffffffffffffffffffffffffffffff161415610684576040517f08c379a000000000000000000000000000000000000000000000000000000000815260040161067b9061249b565b60405180910390fd5b8073ffffffffffffffffffffffffffffffffffffffff166106a3610e75565b73ffffffffffffffffffffffffffffffffffffffff1614806106d257506106d1816106cc610e75565b610d0b565b5b610711576040517f08c379a0000000000000000000000000000000000000000000000000000000008152600401610708906123bb565b60405180910390fd5b61071b8383610e7d565b505050565b61073161072b610e75565b82610f36565b610770576040517f08c379a0000000000000000000000000000000000000000000000000000000008152600401610767906124bb565b60405180910390fd5b61077b838383611014565b505050565b61079b83838360405180602001604052806000815250610c11565b505050565b60006107ac6006611270565b905090565b6000806002600084815260200190815260200160002060009054906101000a900473ffffffffffffffffffffffffffffffffffffffff169050600073ffffffffffffffffffffffffffffffffffffffff168173ffffffffffffffffffffffffffffffffffffffff16141561085a576040517f08c379a0000000000000000000000000000000000000000000000000000000008152600401610851906123fb565b60405180910390fd5b80915050919050565b60006009600083815260200190815260200160002060009054906101000a900473ffffffffffffffffffffffffffffffffffffffff169050919050565b60008073ffffffffffffffffffffffffffffffffffffffff168273ffffffffffffffffffffffffffffffffffffffff161415610911576040517f08c379a0000000000000000000000000000000000000000000000000000000008152600401610908906123db565b60405180910390fd5b600360008373ffffffffffffffffffffffffffffffffffffffff1673ffffffffffffffffffffffffffffffffffffffff168152602001908152602001600020549050919050565b6060600180546109679061271f565b80601f01602080910402602001604051908101604052809291908181526020018280546109939061271f565b80156109e05780601f106109b5576101008083540402835291602001916109e0565b820191906000526020600020905b8154815290600101906020018083116109c357829003601f168201915b5050505050905090565b60016008836040516109fc919061223c565b908152602001604051809103902060009054906101000a900460ff1660ff161415610a2657600080fd5b6001600883604051610a38919061223c565b908152602001604051809103902060006101000a81548160ff021916908360ff160217905550610a68600661127e565b6000610a746006611270565b9050610a808482611294565b610a8a81836112b2565b50505050565b610a98610e75565b73ffffffffffffffffffffffffffffffffffffffff168273ffffffffffffffffffffffffffffffffffffffff161415610b06576040517f08c379a0000000000000000000000000000000000000000000000000000000008152600401610afd9061237b565b60405180910390fd5b8060056000610b13610e75565b73ffffffffffffffffffffffffffffffffffffffff1673ffffffffffffffffffffffffffffffffffffffff16815260200190815260200160002060008473ffffffffffffffffffffffffffffffffffffffff1673ffffffffffffffffffffffffffffffffffffffff16815260200190815260200160002060006101000a81548160ff0219169083151502179055508173ffffffffffffffffffffffffffffffffffffffff16610bc0610e75565b73ffffffffffffffffffffffffffffffffffffffff167f17307eab39ab6107e8899845ad3d59bd9653f200f220920489ca2b5937696c3183604051610c0591906122de565b60405180910390a35050565b610c22610c1c610e75565b83610f36565b610c61576040517f08c379a0000000000000000000000000000000000000000000000000000000008152600401610c58906124bb565b60405180910390fd5b610c6d848484846112de565b50505050565b6000610c7e826107b1565b9050919050565b6060610c9082610e09565b610ccf576040517f08c379a0000000000000000000000000000000000000000000000000000000008152600401610cc69061247b565b60405180910390fd5b600a60076000848152602001908152602001600020604051602001610cf5929190612253565b6040516020818303038152906040529050919050565b6000600560008473ffffffffffffffffffffffffffffffffffffffff1673ffffffffffffffffffffffffffffffffffffffff16815260200190815260200160002060008373ffffffffffffffffffffffffffffffffffffffff1673ffffffffffffffffffffffffffffffffffffffff16815260200190815260200160002060009054906101000a900460ff16905092915050565b60007f01ffc9a7000000000000000000000000000000000000000000000000000000007bffffffffffffffffffffffffffffffffffffffffffffffffffffffff1916827bffffffffffffffffffffffffffffffffffffffffffffffffffffffff1916149050919050565b60008073ffffffffffffffffffffffffffffffffffffffff166002600084815260200190815260200160002060009054906101000a900473ffffffffffffffffffffffffffffffffffffffff1673ffffffffffffffffffffffffffffffffffffffff1614159050919050565b600033905090565b816004600083815260200190815260200160002060006101000a81548173ffffffffffffffffffffffffffffffffffffffff021916908373ffffffffffffffffffffffffffffffffffffffff160217905550808273ffffffffffffffffffffffffffffffffffffffff16610ef0836107b1565b73ffffffffffffffffffffffffffffffffffffffff167f8c5be1e5ebec7d5bd14f71427d1e84f3dd0314c0f7b2291e5b200ac8c7c3b92560405160405180910390a45050565b6000610f4182610e09565b610f80576040517f08c379a0000000000000000000000000000000000000000000000000000000008152600401610f779061239b565b60405180910390fd5b6000610f8b836107b1565b90508073ffffffffffffffffffffffffffffffffffffffff168473ffffffffffffffffffffffffffffffffffffffff161480610ffa57508373ffffffffffffffffffffffffffffffffffffffff16610fe284610583565b73ffffffffffffffffffffffffffffffffffffffff16145b8061100b575061100a8185610d0b565b5b91505092915050565b8273ffffffffffffffffffffffffffffffffffffffff16611034826107b1565b73ffffffffffffffffffffffffffffffffffffffff161461108a576040517f08c379a00000000000000000000000000000000000000000000000000000000081526004016110819061245b565b60405180910390fd5b600073ffffffffffffffffffffffffffffffffffffffff168273ffffffffffffffffffffffffffffffffffffffff1614156110fa576040517f08c379a00000000000000000000000000000000000000000000000000000000081526004016110f19061235b565b60405180910390fd5b61110583838361133a565b611110600082610e7d565b6001600360008573ffffffffffffffffffffffffffffffffffffffff1673ffffffffffffffffffffffffffffffffffffffff16815260200190815260200160002060008282546111609190612635565b925050819055506001600360008473ffffffffffffffffffffffffffffffffffffffff1673ffffffffffffffffffffffffffffffffffffffff16815260200190815260200160002060008282546111b791906125df565b92505081905550816002600083815260200190815260200160002060006101000a81548173ffffffffffffffffffffffffffffffffffffffff021916908373ffffffffffffffffffffffffffffffffffffffff160217905550808273ffffffffffffffffffffffffffffffffffffffff168473ffffffffffffffffffffffffffffffffffffffff167fddf252ad1be2c89b69c2b068fc378daa952ba7f163c4a11628f55a4df523b3ef60405160405180910390a4505050565b600081600001549050919050565b6001816000016000828254019250508190555050565b6112ae82826040518060200160405280600081525061133f565b5050565b806007600084815260200190815260200160002090805190602001906112d9929190611712565b505050565b6112e9848484611014565b6112f58484848461139a565b611334576040517f08c379a000000000000000000000000000000000000000000000000000000000815260040161132b9061231b565b60405180910390fd5b50505050565b505050565b6113498383611531565b611356600084848461139a565b611395576040517f08c379a000000000000000000000000000000000000000000000000000000000815260040161138c9061231b565b60405180910390fd5b505050565b60006113bb8473ffffffffffffffffffffffffffffffffffffffff166116ff565b15611524578373ffffffffffffffffffffffffffffffffffffffff1663150b7a026113e4610e75565b8786866040518563ffffffff1660e01b81526004016114069493929190612292565b602060405180830381600087803b15801561142057600080fd5b505af192505050801561145157506040513d601f19601f8201168201806040525081019061144e9190611b3d565b60015b6114d4573d8060008114611481576040519150601f19603f3d011682016040523d82523d6000602084013e611486565b606091505b506000815114156114cc576040517f08c379a00000000000000000000000000000000000000000000000000000000081526004016114c39061231b565b60405180910390fd5b805181602001fd5b63150b7a0260e01b7bffffffffffffffffffffffffffffffffffffffffffffffffffffffff1916817bffffffffffffffffffffffffffffffffffffffffffffffffffffffff191614915050611529565b600190505b949350505050565b600073ffffffffffffffffffffffffffffffffffffffff168273ffffffffffffffffffffffffffffffffffffffff1614156115a1576040517f08c379a00000000000000000000000000000000000000000000000000000000081526004016115989061241b565b60405180910390fd5b6115aa81610e09565b156115ea576040517f08c379a00000000000000000000000000000000000000000000000000000000081526004016115e19061233b565b60405180910390fd5b6115f66000838361133a565b6001600360008473ffffffffffffffffffffffffffffffffffffffff1673ffffffffffffffffffffffffffffffffffffffff168152602001908152602001600020600082825461164691906125df565b92505081905550816002600083815260200190815260200160002060006101000a81548173ffffffffffffffffffffffffffffffffffffffff021916908373ffffffffffffffffffffffffffffffffffffffff160217905550808273ffffffffffffffffffffffffffffffffffffffff16600073ffffffffffffffffffffffffffffffffffffffff167fddf252ad1be2c89b69c2b068fc378daa952ba7f163c4a11628f55a4df523b3ef60405160405180910390a45050565b600080823b905060008111915050919050565b82805461171e9061271f565b90600052602060002090601f0160209004810192826117405760008555611787565b82601f1061175957805160ff1916838001178555611787565b82800160010185558215611787579182015b8281111561178657825182559160200191906001019061176b565b5b5090506117949190611798565b5090565b5b808211156117b1576000816000905550600101611799565b5090565b60006117c86117c384612527565b6124f6565b9050828152602081018484840111156117e057600080fd5b6117eb8482856126dd565b509392505050565b600061180661180184612557565b6124f6565b90508281526020810184848401111561181e57600080fd5b6118298482856126dd565b509392505050565b600081359050611840816127ef565b92915050565b60008135905061185581612806565b92915050565b60008135905061186a8161281d565b92915050565b60008151905061187f8161281d565b92915050565b600082601f83011261189657600080fd5b81356118a68482602086016117b5565b91505092915050565b600082601f8301126118c057600080fd5b81356118d08482602086016117f3565b91505092915050565b6000813590506118e881612834565b92915050565b60006020828403121561190057600080fd5b600061190e84828501611831565b91505092915050565b6000806040838503121561192a57600080fd5b600061193885828601611831565b925050602061194985828601611831565b9150509250929050565b60008060006060848603121561196857600080fd5b600061197686828701611831565b935050602061198786828701611831565b9250506040611998868287016118d9565b9150509250925092565b600080600080608085870312156119b857600080fd5b60006119c687828801611831565b94505060206119d787828801611831565b93505060406119e8878288016118d9565b925050606085013567ffffffffffffffff811115611a0557600080fd5b611a1187828801611885565b91505092959194509250565b60008060408385031215611a3057600080fd5b6000611a3e85828601611831565b9250506020611a4f85828601611846565b9150509250929050565b600080600060608486031215611a6e57600080fd5b6000611a7c86828701611831565b935050602084013567ffffffffffffffff811115611a9957600080fd5b611aa5868287016118af565b925050604084013567ffffffffffffffff811115611ac257600080fd5b611ace868287016118af565b9150509250925092565b60008060408385031215611aeb57600080fd5b6000611af985828601611831565b9250506020611b0a858286016118d9565b9150509250929050565b600060208284031215611b2657600080fd5b6000611b348482850161185b565b91505092915050565b600060208284031215611b4f57600080fd5b6000611b5d84828501611870565b91505092915050565b600060208284031215611b7857600080fd5b6000611b86848285016118d9565b91505092915050565b60008060408385031215611ba257600080fd5b6000611bb0858286016118d9565b9250506020611bc185828601611831565b9150509250929050565b611bd481612669565b82525050565b611be38161267b565b82525050565b6000611bf48261259c565b611bfe81856125b2565b9350611c0e8185602086016126ec565b611c17816127de565b840191505092915050565b6000611c2d826125a7565b611c3781856125c3565b9350611c478185602086016126ec565b611c50816127de565b840191505092915050565b6000611c66826125a7565b611c7081856125d4565b9350611c808185602086016126ec565b80840191505092915050565b60008154611c998161271f565b611ca381866125d4565b94506001821660008114611cbe5760018114611ccf57611d02565b60ff19831686528186019350611d02565b611cd885612587565b60005b83811015611cfa57815481890152600182019150602081019050611cdb565b838801955050505b50505092915050565b6000611d186032836125c3565b91507f4552433732313a207472616e7366657220746f206e6f6e20455243373231526560008301527f63656976657220696d706c656d656e74657200000000000000000000000000006020830152604082019050919050565b6000611d7e601c836125c3565b91507f4552433732313a20746f6b656e20616c7265616479206d696e746564000000006000830152602082019050919050565b6000611dbe6024836125c3565b91507f4552433732313a207472616e7366657220746f20746865207a65726f2061646460008301527f72657373000000000000000000000000000000000000000000000000000000006020830152604082019050919050565b6000611e246019836125c3565b91507f4552433732313a20617070726f766520746f2063616c6c6572000000000000006000830152602082019050919050565b6000611e64602c836125c3565b91507f4552433732313a206f70657261746f7220717565727920666f72206e6f6e657860008301527f697374656e7420746f6b656e00000000000000000000000000000000000000006020830152604082019050919050565b6000611eca6038836125c3565b91507f4552433732313a20617070726f76652063616c6c6572206973206e6f74206f7760008301527f6e6572206e6f7220617070726f76656420666f7220616c6c00000000000000006020830152604082019050919050565b6000611f30602a836125c3565b91507f4552433732313a2062616c616e636520717565727920666f7220746865207a6560008301527f726f2061646472657373000000000000000000000000000000000000000000006020830152604082019050919050565b6000611f966029836125c3565b91507f4552433732313a206f776e657220717565727920666f72206e6f6e657869737460008301527f656e7420746f6b656e00000000000000000000000000000000000000000000006020830152604082019050919050565b6000611ffc6020836125c3565b91507f4552433732313a206d696e7420746f20746865207a65726f20616464726573736000830152602082019050919050565b600061203c602c836125c3565b91507f4552433732313a20617070726f76656420717565727920666f72206e6f6e657860008301527f697374656e7420746f6b656e00000000000000000000000000000000000000006020830152604082019050919050565b60006120a26029836125c3565b91507f4552433732313a207472616e73666572206f6620746f6b656e2074686174206960008301527f73206e6f74206f776e00000000000000000000000000000000000000000000006020830152604082019050919050565b6000612108602f836125c3565b91507f4552433732314d657461646174613a2055524920717565727920666f72206e6f60008301527f6e6578697374656e7420746f6b656e00000000000000000000000000000000006020830152604082019050919050565b600061216e6021836125c3565b91507f4552433732313a20617070726f76616c20746f2063757272656e74206f776e6560008301527f72000000000000000000000000000000000000000000000000000000000000006020830152604082019050919050565b60006121d46031836125c3565b91507f4552433732313a207472616e736665722063616c6c6572206973206e6f74206f60008301527f776e6572206e6f7220617070726f7665640000000000000000000000000000006020830152604082019050919050565b612236816126d3565b82525050565b60006122488284611c5b565b915081905092915050565b600061225f8285611c8c565b915061226b8284611c8c565b91508190509392505050565b600060208201905061228c6000830184611bcb565b92915050565b60006080820190506122a76000830187611bcb565b6122b46020830186611bcb565b6122c1604083018561222d565b81810360608301526122d38184611be9565b905095945050505050565b60006020820190506122f36000830184611bda565b92915050565b600060208201905081810360008301526123138184611c22565b905092915050565b6000602082019050818103600083015261233481611d0b565b9050919050565b6000602082019050818103600083015261235481611d71565b9050919050565b6000602082019050818103600083015261237481611db1565b9050919050565b6000602082019050818103600083015261239481611e17565b9050919050565b600060208201905081810360008301526123b481611e57565b9050919050565b600060208201905081810360008301526123d481611ebd565b9050919050565b600060208201905081810360008301526123f481611f23565b9050919050565b6000602082019050818103600083015261241481611f89565b9050919050565b6000602082019050818103600083015261243481611fef565b9050919050565b600060208201905081810360008301526124548161202f565b9050919050565b6000602082019050818103600083015261247481612095565b9050919050565b60006020820190508181036000830152612494816120fb565b9050919050565b600060208201905081810360008301526124b481612161565b9050919050565b600060208201905081810360008301526124d4816121c7565b9050919050565b60006020820190506124f0600083018461222d565b92915050565b6000604051905081810181811067ffffffffffffffff8211171561251d5761251c6127af565b5b8060405250919050565b600067ffffffffffffffff821115612542576125416127af565b5b601f19601f8301169050602081019050919050565b600067ffffffffffffffff821115612572576125716127af565b5b601f19601f8301169050602081019050919050565b60008190508160005260206000209050919050565b600081519050919050565b600081519050919050565b600082825260208201905092915050565b600082825260208201905092915050565b600081905092915050565b60006125ea826126d3565b91506125f5836126d3565b9250827fffffffffffffffffffffffffffffffffffffffffffffffffffffffffffffffff0382111561262a57612629612751565b5b828201905092915050565b6000612640826126d3565b915061264b836126d3565b92508282101561265e5761265d612751565b5b828203905092915050565b6000612674826126b3565b9050919050565b60008115159050919050565b60007fffffffff0000000000000000000000000000000000000000000000000000000082169050919050565b600073ffffffffffffffffffffffffffffffffffffffff82169050919050565b6000819050919050565b82818337600083830152505050565b60005b8381101561270a5780820151818401526020810190506126ef565b83811115612719576000848401525b50505050565b6000600282049050600182168061273757607f821691505b6020821081141561274b5761274a612780565b5b50919050565b7f4e487b7100000000000000000000000000000000000000000000000000000000600052601160045260246000fd5b7f4e487b7100000000000000000000000000000000000000000000000000000000600052602260045260246000fd5b7f4e487b7100000000000000000000000000000000000000000000000000000000600052604160045260246000fd5b6000601f19601f8301169050919050565b6127f881612669565b811461280357600080fd5b50565b61280f8161267b565b811461281a57600080fd5b50565b61282681612687565b811461283157600080fd5b50565b61283d816126d3565b811461284857600080fd5b5056fea2646970667358221220638be5768475ea5dda4ab638640350bc20ff425931d034555d896994dc67e21264736f6c63430008000033",
  "immutableReferences": {},
  "source": "// SPDX-License-Identifier: MIT\npragma solidity ^0.8.0;\n\nimport \"../node_modules/@openzeppelin/contracts/utils/Counters.sol\";\nimport \"../node_modules/@openzeppelin/contracts/token/ERC721/ERC721.sol\";\nimport \"../node_modules/@openzeppelin/contracts/access/Ownable.sol\";\nimport \"./cERC20.sol\";\n\ncontract EstateToken is ERC721 {\n\n    using Counters for Counters.Counter;\n    using Strings for uint;\n\n    Counters.Counter tokenId;\n    mapping(uint256 => string) tokenURIs;\n    mapping(string => uint8) tokenCheck;\n    mapping(uint256 => address) tokenContracts;\n    \n    string baseURI = \"\";\n\n    constructor() ERC721(\"Estate\", \"EST\") {}\n\n    function setTokenURI(uint256 _tokenId, string memory _tokenURI) private {\n        tokenURIs[_tokenId] = _tokenURI;\n    }\n\n    function setNewBase(string memory _newBase) private {\n        baseURI = _newBase;\n    }\n\n    function _baseURI() internal view virtual override returns (string memory) {\n        return baseURI;\n    }\n\n    function tokenURI(uint256 _tokenId) public view virtual override returns (string memory) {\n        require(_exists(_tokenId), \"ERC721Metadata: URI query for nonexistent token\");\n        return string(abi.encodePacked(baseURI, tokenURIs[_tokenId])); \n    }\n\n    function getId() public view returns (uint) {\n        return tokenId.current();\n    }\n\n    function mint(address _lister, string memory ipfs_hash, string memory _metadata) public {\n        require(tokenCheck[ipfs_hash] != 1);\n        tokenCheck[ipfs_hash] = 1;\n        tokenId.increment();\n        uint newID = tokenId.current();\n        _safeMint(_lister, newID);\n        setTokenURI(newID, _metadata);\n    }\n\n    function setTokenFractions(uint _tokenId, address _address) public {\n        tokenContracts[_tokenId] = _address;\n    }\n\n    function getOwner(uint256 _tokenId) public view returns (address) {\n        return ownerOf(_tokenId);\n    }\n\n    function getContract(uint _tokenId) public view returns (address) {\n        return tokenContracts[_tokenId];\n    }\n}\n\n",
  "sourcePath": "/home/decfox/Projects/Icarus/contracts/EstateToken.sol",
  "compiler": {
    "name": "solc",
    "version": "0.8.0+commit.c7dfd78e.Emscripten.clang"
  },
  "schemaVersion": "3.4.1",
  "updatedAt": "2021-07-02T16:51:29.309Z",
  "networkType": "ethereum",
  "devdoc": {
    "kind": "dev",
    "methods": {
      "approve(address,uint256)": {
        "details": "See {IERC721-approve}."
      },
      "balanceOf(address)": {
        "details": "See {IERC721-balanceOf}."
      },
      "getApproved(uint256)": {
        "details": "See {IERC721-getApproved}."
      },
      "isApprovedForAll(address,address)": {
        "details": "See {IERC721-isApprovedForAll}."
      },
      "name()": {
        "details": "See {IERC721Metadata-name}."
      },
      "ownerOf(uint256)": {
        "details": "See {IERC721-ownerOf}."
      },
      "safeTransferFrom(address,address,uint256)": {
        "details": "See {IERC721-safeTransferFrom}."
      },
      "safeTransferFrom(address,address,uint256,bytes)": {
        "details": "See {IERC721-safeTransferFrom}."
      },
      "setApprovalForAll(address,bool)": {
        "details": "See {IERC721-setApprovalForAll}."
      },
      "supportsInterface(bytes4)": {
        "details": "See {IERC165-supportsInterface}."
      },
      "symbol()": {
        "details": "See {IERC721Metadata-symbol}."
      },
      "transferFrom(address,address,uint256)": {
        "details": "See {IERC721-transferFrom}."
      }
    },
    "version": 1
  },
  "userdoc": {
    "kind": "user",
    "methods": {},
    "version": 1
  }
}