{
  "contractName": "EstateToken",
  "abi": [
    {
      "inputs": [],
      "stateMutability": "nonpayable",
      "type": "constructor"
    },
    {
      "anonymous": false,
      "inputs": [
        {
          "indexed": true,
          "internalType": "address",
          "name": "owner",
          "type": "address"
        },
        {
          "indexed": true,
          "internalType": "address",
          "name": "approved",
          "type": "address"
        },
        {
          "indexed": true,
          "internalType": "uint256",
          "name": "tokenId",
          "type": "uint256"
        }
      ],
      "name": "Approval",
      "type": "event"
    },
    {
      "anonymous": false,
      "inputs": [
        {
          "indexed": true,
          "internalType": "address",
          "name": "owner",
          "type": "address"
        },
        {
          "indexed": true,
          "internalType": "address",
          "name": "operator",
          "type": "address"
        },
        {
          "indexed": false,
          "internalType": "bool",
          "name": "approved",
          "type": "bool"
        }
      ],
      "name": "ApprovalForAll",
      "type": "event"
    },
    {
      "anonymous": false,
      "inputs": [
        {
          "indexed": true,
          "internalType": "address",
          "name": "from",
          "type": "address"
        },
        {
          "indexed": true,
          "internalType": "address",
          "name": "to",
          "type": "address"
        },
        {
          "indexed": true,
          "internalType": "uint256",
          "name": "tokenId",
          "type": "uint256"
        }
      ],
      "name": "Transfer",
      "type": "event"
    },
    {
      "inputs": [
        {
          "internalType": "address",
          "name": "to",
          "type": "address"
        },
        {
          "internalType": "uint256",
          "name": "tokenId",
          "type": "uint256"
        }
      ],
      "name": "approve",
      "outputs": [],
      "stateMutability": "nonpayable",
      "type": "function"
    },
    {
      "inputs": [
        {
          "internalType": "address",
          "name": "owner",
          "type": "address"
        }
      ],
      "name": "balanceOf",
      "outputs": [
        {
          "internalType": "uint256",
          "name": "",
          "type": "uint256"
        }
      ],
      "stateMutability": "view",
      "type": "function"
    },
    {
      "inputs": [
        {
          "internalType": "uint256",
          "name": "tokenId",
          "type": "uint256"
        }
      ],
      "name": "getApproved",
      "outputs": [
        {
          "internalType": "address",
          "name": "",
          "type": "address"
        }
      ],
      "stateMutability": "view",
      "type": "function"
    },
    {
      "inputs": [
        {
          "internalType": "address",
          "name": "owner",
          "type": "address"
        },
        {
          "internalType": "address",
          "name": "operator",
          "type": "address"
        }
      ],
      "name": "isApprovedForAll",
      "outputs": [
        {
          "internalType": "bool",
          "name": "",
          "type": "bool"
        }
      ],
      "stateMutability": "view",
      "type": "function"
    },
    {
      "inputs": [],
      "name": "name",
      "outputs": [
        {
          "internalType": "string",
          "name": "",
          "type": "string"
        }
      ],
      "stateMutability": "view",
      "type": "function"
    },
    {
      "inputs": [
        {
          "internalType": "uint256",
          "name": "tokenId",
          "type": "uint256"
        }
      ],
      "name": "ownerOf",
      "outputs": [
        {
          "internalType": "address",
          "name": "",
          "type": "address"
        }
      ],
      "stateMutability": "view",
      "type": "function"
    },
    {
      "inputs": [
        {
          "internalType": "address",
          "name": "from",
          "type": "address"
        },
        {
          "internalType": "address",
          "name": "to",
          "type": "address"
        },
        {
          "internalType": "uint256",
          "name": "tokenId",
          "type": "uint256"
        }
      ],
      "name": "safeTransferFrom",
      "outputs": [],
      "stateMutability": "nonpayable",
      "type": "function"
    },
    {
      "inputs": [
        {
          "internalType": "address",
          "name": "from",
          "type": "address"
        },
        {
          "internalType": "address",
          "name": "to",
          "type": "address"
        },
        {
          "internalType": "uint256",
          "name": "tokenId",
          "type": "uint256"
        },
        {
          "internalType": "bytes",
          "name": "_data",
          "type": "bytes"
        }
      ],
      "name": "safeTransferFrom",
      "outputs": [],
      "stateMutability": "nonpayable",
      "type": "function"
    },
    {
      "inputs": [
        {
          "internalType": "address",
          "name": "operator",
          "type": "address"
        },
        {
          "internalType": "bool",
          "name": "approved",
          "type": "bool"
        }
      ],
      "name": "setApprovalForAll",
      "outputs": [],
      "stateMutability": "nonpayable",
      "type": "function"
    },
    {
      "inputs": [
        {
          "internalType": "bytes4",
          "name": "interfaceId",
          "type": "bytes4"
        }
      ],
      "name": "supportsInterface",
      "outputs": [
        {
          "internalType": "bool",
          "name": "",
          "type": "bool"
        }
      ],
      "stateMutability": "view",
      "type": "function"
    },
    {
      "inputs": [],
      "name": "symbol",
      "outputs": [
        {
          "internalType": "string",
          "name": "",
          "type": "string"
        }
      ],
      "stateMutability": "view",
      "type": "function"
    },
    {
      "inputs": [
        {
          "internalType": "address",
          "name": "from",
          "type": "address"
        },
        {
          "internalType": "address",
          "name": "to",
          "type": "address"
        },
        {
          "internalType": "uint256",
          "name": "tokenId",
          "type": "uint256"
        }
      ],
      "name": "transferFrom",
      "outputs": [],
      "stateMutability": "nonpayable",
      "type": "function"
    },
    {
      "inputs": [
        {
          "internalType": "uint256",
          "name": "_tokenId",
          "type": "uint256"
        }
      ],
      "name": "tokenURI",
      "outputs": [
        {
          "internalType": "string",
          "name": "",
          "type": "string"
        }
      ],
      "stateMutability": "view",
      "type": "function"
    },
    {
      "inputs": [],
      "name": "getId",
      "outputs": [
        {
          "internalType": "uint256",
          "name": "",
          "type": "uint256"
        }
      ],
      "stateMutability": "view",
      "type": "function"
    },
    {
      "inputs": [
        {
          "internalType": "address",
          "name": "_lister",
          "type": "address"
        },
        {
          "internalType": "string",
          "name": "ipfs_hash",
          "type": "string"
        },
        {
          "internalType": "string",
          "name": "_metadata",
          "type": "string"
        }
      ],
      "name": "mint",
      "outputs": [],
      "stateMutability": "nonpayable",
      "type": "function"
    },
    {
      "inputs": [
        {
          "internalType": "uint256",
          "name": "_tokenId",
          "type": "uint256"
        },
        {
          "internalType": "uint256",
          "name": "_amount",
          "type": "uint256"
        },
        {
          "internalType": "uint256",
          "name": "_price",
          "type": "uint256"
        }
      ],
      "name": "setTokenFractions",
      "outputs": [],
      "stateMutability": "nonpayable",
      "type": "function"
    },
    {
      "inputs": [
        {
          "internalType": "address",
          "name": "_from",
          "type": "address"
        },
        {
          "internalType": "address",
          "name": "_to",
          "type": "address"
        },
        {
          "internalType": "uint256",
          "name": "_tokenId",
          "type": "uint256"
        },
        {
          "internalType": "uint256",
          "name": "_amount",
          "type": "uint256"
        },
        {
          "internalType": "uint256",
          "name": "_newPrice",
          "type": "uint256"
        }
      ],
      "name": "tranferTokens",
      "outputs": [],
      "stateMutability": "nonpayable",
      "type": "function"
    },
    {
      "inputs": [
        {
          "internalType": "uint256",
          "name": "_tokenId",
          "type": "uint256"
        }
      ],
      "name": "getContract",
      "outputs": [
        {
          "internalType": "address",
          "name": "",
          "type": "address"
        }
      ],
      "stateMutability": "view",
      "type": "function"
    },
    {
      "inputs": [
        {
          "internalType": "address",
          "name": "_user",
          "type": "address"
        },
        {
          "internalType": "uint256",
          "name": "_tokenId",
          "type": "uint256"
        }
      ],
      "name": "getUserBalance",
      "outputs": [
        {
          "internalType": "uint256",
          "name": "",
          "type": "uint256"
        }
      ],
      "stateMutability": "view",
      "type": "function"
    },
    {
      "inputs": [
        {
          "internalType": "uint256",
          "name": "_tokenId",
          "type": "uint256"
        }
      ],
      "name": "getTokenURI",
      "outputs": [
        {
          "internalType": "string",
          "name": "",
          "type": "string"
        }
      ],
      "stateMutability": "view",
      "type": "function"
    },
    {
      "inputs": [
        {
          "internalType": "uint256",
          "name": "_tokenId",
          "type": "uint256"
        }
      ],
      "name": "getTokenPrice",
      "outputs": [
        {
          "internalType": "uint256",
          "name": "",
          "type": "uint256"
        }
      ],
      "stateMutability": "view",
      "type": "function"
    }
  ],
  "bytecode": "0x608060405260405180602001604052806000815250600a90805190602001906200002b929190620000e0565b503480156200003957600080fd5b506040518060400160405280600681526020017f45737461746500000000000000000000000000000000000000000000000000008152506040518060400160405280600381526020017f45535400000000000000000000000000000000000000000000000000000000008152508160009080519060200190620000be929190620000e0565b508060019080519060200190620000d7929190620000e0565b505050620001f5565b828054620000ee9062000190565b90600052602060002090601f0160209004810192826200011257600085556200015e565b82601f106200012d57805160ff19168380011785556200015e565b828001600101855582156200015e579182015b828111156200015d57825182559160200191906001019062000140565b5b5090506200016d919062000171565b5090565b5b808211156200018c57600081600090555060010162000172565b5090565b60006002820490506001821680620001a957607f821691505b60208210811415620001c057620001bf620001c6565b5b50919050565b7f4e487b7100000000000000000000000000000000000000000000000000000000600052602260045260246000fd5b614f2280620002056000396000f3fe60806040523480156200001157600080fd5b5060043610620001545760003560e01c806370a0823111620000c95780639907119011620000875780639907119014620003d9578063a22cb46514620003f9578063b88d4fde1462000419578063c457fb371462000439578063c87b56dd146200046f578063e985e9c514620004a55762000154565b806370a08231146200030b578063805c31ca146200034157806382bf0fcc146200036157806391a9648a146200038157806395d89b4114620003b75762000154565b80633bb3a24d11620001175780633bb3a24d146200022757806342842e0e146200025d5780635d1ca631146200027d5780636352211e146200029f5780636ebc8c8614620002d55762000154565b806301ffc9a7146200015957806306fdde03146200018f578063081812fc14620001b1578063095ea7b314620001e757806323b872dd1462000207575b600080fd5b62000177600480360381019062000171919062002296565b620004db565b60405162000186919062002ca0565b60405180910390f35b62000199620005c1565b604051620001a8919062002cbd565b60405180910390f35b620001cf6004803603810190620001c9919062002333565b6200065b565b604051620001de919062002ba5565b60405180910390f35b620002056004803603810190620001ff919062002229565b620006e5565b005b6200022560048036038101906200021f919062002003565b6200080e565b005b6200024560048036038101906200023f919062002333565b62000877565b60405162000254919062002cbd565b60405180910390f35b6200027b600480360381019062000275919062002003565b62000940565b005b6200028762000962565b60405162000296919062002ebd565b60405180910390f35b620002bd6004803603810190620002b7919062002333565b62000975565b604051620002cc919062002ba5565b60405180910390f35b620002f36004803603810190620002ed919062002333565b62000a2a565b60405162000302919062002ba5565b60405180910390f35b62000329600480360381019062000323919062001f96565b62000a67565b60405162000338919062002ebd565b60405180910390f35b6200035f60048036038101906200035991906200238b565b62000b22565b005b6200037f6004803603810190620003799190620020de565b62000c4e565b005b6200039f600480360381019062000399919062002229565b62000d26565b604051620003ae919062002ebd565b60405180910390f35b620003c162000df7565b604051620003d0919062002cbd565b60405180910390f35b620003f76004803603810190620003f19190620021a1565b62000e91565b005b62000417600480360381019062000411919062002160565b62000f44565b005b62000437600480360381019062000431919062002059565b620010d0565b005b62000457600480360381019062000451919062002333565b6200113b565b60405162000466919062002ebd565b60405180910390f35b6200048d600480360381019062000487919062002333565b620011fe565b6040516200049c919062002cbd565b60405180910390f35b620004c36004803603810190620004bd919062001fc2565b6200128b565b604051620004d2919062002ca0565b60405180910390f35b60007f80ac58cd000000000000000000000000000000000000000000000000000000007bffffffffffffffffffffffffffffffffffffffffffffffffffffffff1916827bffffffffffffffffffffffffffffffffffffffffffffffffffffffff19161480620005a757507f5b5e139f000000000000000000000000000000000000000000000000000000007bffffffffffffffffffffffffffffffffffffffffffffffffffffffff1916827bffffffffffffffffffffffffffffffffffffffffffffffffffffffff1916145b80620005ba5750620005b9826200131f565b5b9050919050565b606060008054620005d29062003168565b80601f0160208091040260200160405190810160405280929190818152602001828054620006009062003168565b8015620006515780601f10620006255761010080835404028352916020019162000651565b820191906000526020600020905b8154815290600101906020018083116200063357829003601f168201915b5050505050905090565b6000620006688262001389565b620006aa576040517f08c379a0000000000000000000000000000000000000000000000000000000008152600401620006a19062002e13565b60405180910390fd5b6004600083815260200190815260200160002060009054906101000a900473ffffffffffffffffffffffffffffffffffffffff169050919050565b6000620006f28262000975565b90508073ffffffffffffffffffffffffffffffffffffffff168373ffffffffffffffffffffffffffffffffffffffff16141562000766576040517f08c379a00000000000000000000000000000000000000000000000000000000081526004016200075d9062002e79565b60405180910390fd5b8073ffffffffffffffffffffffffffffffffffffffff1662000787620013f5565b73ffffffffffffffffffffffffffffffffffffffff161480620007bb5750620007ba81620007b4620013f5565b6200128b565b5b620007fd576040517f08c379a0000000000000000000000000000000000000000000000000000000008152600401620007f49062002d8b565b60405180910390fd5b620008098383620013fd565b505050565b620008236200081c620013f5565b82620014b8565b62000865576040517f08c379a00000000000000000000000000000000000000000000000000000000081526004016200085c9062002e9b565b60405180910390fd5b62000872838383620015a3565b505050565b606060006009600084815260200190815260200160002060009054906101000a900473ffffffffffffffffffffffffffffffffffffffff1690508073ffffffffffffffffffffffffffffffffffffffff166306fdde036040518163ffffffff1660e01b815260040160006040518083038186803b158015620008f857600080fd5b505afa1580156200090d573d6000803e3d6000fd5b505050506040513d6000823e3d601f19601f82011682018060405250810190620009389190620022ee565b915050919050565b6200095d83838360405180602001604052806000815250620010d0565b505050565b60006200097060066200180f565b905090565b6000806002600084815260200190815260200160002060009054906101000a900473ffffffffffffffffffffffffffffffffffffffff169050600073ffffffffffffffffffffffffffffffffffffffff168173ffffffffffffffffffffffffffffffffffffffff16141562000a21576040517f08c379a000000000000000000000000000000000000000000000000000000000815260040162000a189062002dcf565b60405180910390fd5b80915050919050565b60006009600083815260200190815260200160002060009054906101000a900473ffffffffffffffffffffffffffffffffffffffff169050919050565b60008073ffffffffffffffffffffffffffffffffffffffff168273ffffffffffffffffffffffffffffffffffffffff16141562000adb576040517f08c379a000000000000000000000000000000000000000000000000000000000815260040162000ad29062002dad565b60405180910390fd5b600360008373ffffffffffffffffffffffffffffffffffffffff1673ffffffffffffffffffffffffffffffffffffffff168152602001908152602001600020549050919050565b6000836007600086815260200190815260200160002060405162000b469062001ce1565b62000b5392919062002eda565b604051809103906000f08015801562000b70573d6000803e3d6000fd5b5090506000819050806009600087815260200190815260200160002060006101000a81548173ffffffffffffffffffffffffffffffffffffffff021916908373ffffffffffffffffffffffffffffffffffffffff1602179055508173ffffffffffffffffffffffffffffffffffffffff16637776afa062000bf18762000975565b86866040518463ffffffff1660e01b815260040162000c139392919062002c63565b600060405180830381600087803b15801562000c2e57600080fd5b505af115801562000c43573d6000803e3d6000fd5b505050505050505050565b60006009600085815260200190815260200160002060009054906101000a900473ffffffffffffffffffffffffffffffffffffffff1690508073ffffffffffffffffffffffffffffffffffffffff16630cde7cc0878786866040518563ffffffff1660e01b815260040162000cc7949392919062002c16565b602060405180830381600087803b15801562000ce257600080fd5b505af115801562000cf7573d6000803e3d6000fd5b505050506040513d601f19601f8201168201806040525081019062000d1d91906200226a565b50505050505050565b6000806009600084815260200190815260200160002060009054906101000a900473ffffffffffffffffffffffffffffffffffffffff1690508073ffffffffffffffffffffffffffffffffffffffff166370a08231856040518263ffffffff1660e01b815260040162000d9a919062002ba5565b60206040518083038186803b15801562000db357600080fd5b505afa15801562000dc8573d6000803e3d6000fd5b505050506040513d601f19601f8201168201806040525081019062000dee91906200235f565b91505092915050565b60606001805462000e089062003168565b80601f016020809104026020016040519081016040528092919081815260200182805462000e369062003168565b801562000e875780601f1062000e5b5761010080835404028352916020019162000e87565b820191906000526020600020905b81548152906001019060200180831162000e6957829003601f168201915b5050505050905090565b600160088360405162000ea5919062002b64565b908152602001604051809103902060009054906101000a900460ff1660ff16141562000ed057600080fd5b600160088360405162000ee4919062002b64565b908152602001604051809103902060006101000a81548160ff021916908360ff16021790555062000f1660066200181d565b600062000f2460066200180f565b905062000f32848262001833565b62000f3e818362001853565b50505050565b62000f4e620013f5565b73ffffffffffffffffffffffffffffffffffffffff168273ffffffffffffffffffffffffffffffffffffffff16141562000fbf576040517f08c379a000000000000000000000000000000000000000000000000000000000815260040162000fb69062002d47565b60405180910390fd5b806005600062000fce620013f5565b73ffffffffffffffffffffffffffffffffffffffff1673ffffffffffffffffffffffffffffffffffffffff16815260200190815260200160002060008473ffffffffffffffffffffffffffffffffffffffff1673ffffffffffffffffffffffffffffffffffffffff16815260200190815260200160002060006101000a81548160ff0219169083151502179055508173ffffffffffffffffffffffffffffffffffffffff166200107d620013f5565b73ffffffffffffffffffffffffffffffffffffffff167f17307eab39ab6107e8899845ad3d59bd9653f200f220920489ca2b5937696c3183604051620010c4919062002ca0565b60405180910390a35050565b620010e5620010de620013f5565b83620014b8565b62001127576040517f08c379a00000000000000000000000000000000000000000000000000000000081526004016200111e9062002e9b565b60405180910390fd5b620011358484848462001881565b50505050565b6000806009600084815260200190815260200160002060009054906101000a900473ffffffffffffffffffffffffffffffffffffffff1690508073ffffffffffffffffffffffffffffffffffffffff16639dfde2016040518163ffffffff1660e01b815260040160206040518083038186803b158015620011bb57600080fd5b505afa158015620011d0573d6000803e3d6000fd5b505050506040513d601f19601f82011682018060405250810190620011f691906200235f565b915050919050565b60606200120b8262001389565b6200124d576040517f08c379a0000000000000000000000000000000000000000000000000000000008152600401620012449062002e57565b60405180910390fd5b600a600760008481526020019081526020016000206040516020016200127592919062002b7d565b6040516020818303038152906040529050919050565b6000600560008473ffffffffffffffffffffffffffffffffffffffff1673ffffffffffffffffffffffffffffffffffffffff16815260200190815260200160002060008373ffffffffffffffffffffffffffffffffffffffff1673ffffffffffffffffffffffffffffffffffffffff16815260200190815260200160002060009054906101000a900460ff16905092915050565b60007f01ffc9a7000000000000000000000000000000000000000000000000000000007bffffffffffffffffffffffffffffffffffffffffffffffffffffffff1916827bffffffffffffffffffffffffffffffffffffffffffffffffffffffff1916149050919050565b60008073ffffffffffffffffffffffffffffffffffffffff166002600084815260200190815260200160002060009054906101000a900473ffffffffffffffffffffffffffffffffffffffff1673ffffffffffffffffffffffffffffffffffffffff1614159050919050565b600033905090565b816004600083815260200190815260200160002060006101000a81548173ffffffffffffffffffffffffffffffffffffffff021916908373ffffffffffffffffffffffffffffffffffffffff160217905550808273ffffffffffffffffffffffffffffffffffffffff16620014728362000975565b73ffffffffffffffffffffffffffffffffffffffff167f8c5be1e5ebec7d5bd14f71427d1e84f3dd0314c0f7b2291e5b200ac8c7c3b92560405160405180910390a45050565b6000620014c58262001389565b62001507576040517f08c379a0000000000000000000000000000000000000000000000000000000008152600401620014fe9062002d69565b60405180910390fd5b6000620015148362000975565b90508073ffffffffffffffffffffffffffffffffffffffff168473ffffffffffffffffffffffffffffffffffffffff1614806200158657508373ffffffffffffffffffffffffffffffffffffffff166200156e846200065b565b73ffffffffffffffffffffffffffffffffffffffff16145b806200159a57506200159981856200128b565b5b91505092915050565b8273ffffffffffffffffffffffffffffffffffffffff16620015c58262000975565b73ffffffffffffffffffffffffffffffffffffffff16146200161e576040517f08c379a0000000000000000000000000000000000000000000000000000000008152600401620016159062002e35565b60405180910390fd5b600073ffffffffffffffffffffffffffffffffffffffff168273ffffffffffffffffffffffffffffffffffffffff16141562001691576040517f08c379a0000000000000000000000000000000000000000000000000000000008152600401620016889062002d25565b60405180910390fd5b6200169e838383620018e4565b620016ab600082620013fd565b6001600360008573ffffffffffffffffffffffffffffffffffffffff1673ffffffffffffffffffffffffffffffffffffffff1681526020019081526020016000206000828254620016fd919062003072565b925050819055506001600360008473ffffffffffffffffffffffffffffffffffffffff1673ffffffffffffffffffffffffffffffffffffffff168152602001908152602001600020600082825462001756919062003015565b92505081905550816002600083815260200190815260200160002060006101000a81548173ffffffffffffffffffffffffffffffffffffffff021916908373ffffffffffffffffffffffffffffffffffffffff160217905550808273ffffffffffffffffffffffffffffffffffffffff168473ffffffffffffffffffffffffffffffffffffffff167fddf252ad1be2c89b69c2b068fc378daa952ba7f163c4a11628f55a4df523b3ef60405160405180910390a4505050565b600081600001549050919050565b6001816000016000828254019250508190555050565b6200184f828260405180602001604052806000815250620018e9565b5050565b806007600084815260200190815260200160002090805190602001906200187c92919062001cef565b505050565b6200188e848484620015a3565b6200189c848484846200194b565b620018de576040517f08c379a0000000000000000000000000000000000000000000000000000000008152600401620018d59062002ce1565b60405180910390fd5b50505050565b505050565b620018f5838362001af4565b6200190460008484846200194b565b62001946576040517f08c379a00000000000000000000000000000000000000000000000000000000081526004016200193d9062002ce1565b60405180910390fd5b505050565b60006200196e8473ffffffffffffffffffffffffffffffffffffffff1662001cce565b1562001ae7578373ffffffffffffffffffffffffffffffffffffffff1663150b7a026200199a620013f5565b8786866040518563ffffffff1660e01b8152600401620019be949392919062002bc2565b602060405180830381600087803b158015620019d957600080fd5b505af192505050801562001a0d57506040513d601f19601f8201168201806040525081019062001a0a9190620022c2565b60015b62001a96573d806000811462001a40576040519150601f19603f3d011682016040523d82523d6000602084013e62001a45565b606091505b5060008151141562001a8e576040517f08c379a000000000000000000000000000000000000000000000000000000000815260040162001a859062002ce1565b60405180910390fd5b805181602001fd5b63150b7a0260e01b7bffffffffffffffffffffffffffffffffffffffffffffffffffffffff1916817bffffffffffffffffffffffffffffffffffffffffffffffffffffffff19161491505062001aec565b600190505b949350505050565b600073ffffffffffffffffffffffffffffffffffffffff168273ffffffffffffffffffffffffffffffffffffffff16141562001b67576040517f08c379a000000000000000000000000000000000000000000000000000000000815260040162001b5e9062002df1565b60405180910390fd5b62001b728162001389565b1562001bb5576040517f08c379a000000000000000000000000000000000000000000000000000000000815260040162001bac9062002d03565b60405180910390fd5b62001bc360008383620018e4565b6001600360008473ffffffffffffffffffffffffffffffffffffffff1673ffffffffffffffffffffffffffffffffffffffff168152602001908152602001600020600082825462001c15919062003015565b92505081905550816002600083815260200190815260200160002060006101000a81548173ffffffffffffffffffffffffffffffffffffffff021916908373ffffffffffffffffffffffffffffffffffffffff160217905550808273ffffffffffffffffffffffffffffffffffffffff16600073ffffffffffffffffffffffffffffffffffffffff167fddf252ad1be2c89b69c2b068fc378daa952ba7f163c4a11628f55a4df523b3ef60405160405180910390a45050565b600080823b905060008111915050919050565b611c4880620032a583390190565b82805462001cfd9062003168565b90600052602060002090601f01602090048101928262001d21576000855562001d6d565b82601f1062001d3c57805160ff191683800117855562001d6d565b8280016001018555821562001d6d579182015b8281111562001d6c57825182559160200191906001019062001d4f565b5b50905062001d7c919062001d80565b5090565b5b8082111562001d9b57600081600090555060010162001d81565b5090565b600062001db662001db08462002f57565b62002f23565b90508281526020810184848401111562001dcf57600080fd5b62001ddc84828562003123565b509392505050565b600062001dfb62001df58462002f8a565b62002f23565b90508281526020810184848401111562001e1457600080fd5b62001e2184828562003123565b509392505050565b600062001e4062001e3a8462002f8a565b62002f23565b90508281526020810184848401111562001e5957600080fd5b62001e6684828562003132565b509392505050565b60008135905062001e7f816200323c565b92915050565b60008135905062001e968162003256565b92915050565b60008151905062001ead8162003256565b92915050565b60008135905062001ec48162003270565b92915050565b60008151905062001edb8162003270565b92915050565b600082601f83011262001ef357600080fd5b813562001f0584826020860162001d9f565b91505092915050565b600082601f83011262001f2057600080fd5b813562001f3284826020860162001de4565b91505092915050565b600082601f83011262001f4d57600080fd5b815162001f5f84826020860162001e29565b91505092915050565b60008135905062001f79816200328a565b92915050565b60008151905062001f90816200328a565b92915050565b60006020828403121562001fa957600080fd5b600062001fb98482850162001e6e565b91505092915050565b6000806040838503121562001fd657600080fd5b600062001fe68582860162001e6e565b925050602062001ff98582860162001e6e565b9150509250929050565b6000806000606084860312156200201957600080fd5b6000620020298682870162001e6e565b93505060206200203c8682870162001e6e565b92505060406200204f8682870162001f68565b9150509250925092565b600080600080608085870312156200207057600080fd5b6000620020808782880162001e6e565b9450506020620020938782880162001e6e565b9350506040620020a68782880162001f68565b925050606085013567ffffffffffffffff811115620020c457600080fd5b620020d28782880162001ee1565b91505092959194509250565b600080600080600060a08688031215620020f757600080fd5b6000620021078882890162001e6e565b95505060206200211a8882890162001e6e565b94505060406200212d8882890162001f68565b9350506060620021408882890162001f68565b9250506080620021538882890162001f68565b9150509295509295909350565b600080604083850312156200217457600080fd5b6000620021848582860162001e6e565b9250506020620021978582860162001e85565b9150509250929050565b600080600060608486031215620021b757600080fd5b6000620021c78682870162001e6e565b935050602084013567ffffffffffffffff811115620021e557600080fd5b620021f38682870162001f0e565b925050604084013567ffffffffffffffff8111156200221157600080fd5b6200221f8682870162001f0e565b9150509250925092565b600080604083850312156200223d57600080fd5b60006200224d8582860162001e6e565b9250506020620022608582860162001f68565b9150509250929050565b6000602082840312156200227d57600080fd5b60006200228d8482850162001e9c565b91505092915050565b600060208284031215620022a957600080fd5b6000620022b98482850162001eb3565b91505092915050565b600060208284031215620022d557600080fd5b6000620022e58482850162001eca565b91505092915050565b6000602082840312156200230157600080fd5b600082015167ffffffffffffffff8111156200231c57600080fd5b6200232a8482850162001f3b565b91505092915050565b6000602082840312156200234657600080fd5b6000620023568482850162001f68565b91505092915050565b6000602082840312156200237257600080fd5b6000620023828482850162001f7f565b91505092915050565b600080600060608486031215620023a157600080fd5b6000620023b18682870162001f68565b9350506020620023c48682870162001f68565b9250506040620023d78682870162001f68565b9150509250925092565b620023ec81620030ad565b82525050565b620023fd81620030c1565b82525050565b6000620024108262002fd2565b6200241c818562002fe8565b93506200242e81856020860162003132565b62002439816200322b565b840191505092915050565b6000620024518262002fdd565b6200245d818562002ff9565b93506200246f81856020860162003132565b6200247a816200322b565b840191505092915050565b6000620024928262002fdd565b6200249e81856200300a565b9350620024b081856020860162003132565b80840191505092915050565b60008154620024cb8162003168565b620024d7818662002ff9565b94506001821660008114620024f5576001811462002508576200253f565b60ff19831686526020860193506200253f565b620025138562002fbd565b60005b83811015620025375781548189015260018201915060208101905062002516565b808801955050505b50505092915050565b60008154620025578162003168565b6200256381866200300a565b945060018216600081146200258157600181146200259357620025ca565b60ff19831686528186019350620025ca565b6200259e8562002fbd565b60005b83811015620025c257815481890152600182019150602081019050620025a1565b838801955050505b50505092915050565b6000620025e260328362002ff9565b91507f4552433732313a207472616e7366657220746f206e6f6e20455243373231526560008301527f63656976657220696d706c656d656e74657200000000000000000000000000006020830152604082019050919050565b60006200264a601c8362002ff9565b91507f4552433732313a20746f6b656e20616c7265616479206d696e746564000000006000830152602082019050919050565b60006200268c60248362002ff9565b91507f4552433732313a207472616e7366657220746f20746865207a65726f2061646460008301527f72657373000000000000000000000000000000000000000000000000000000006020830152604082019050919050565b6000620026f460198362002ff9565b91507f4552433732313a20617070726f766520746f2063616c6c6572000000000000006000830152602082019050919050565b600062002736602c8362002ff9565b91507f4552433732313a206f70657261746f7220717565727920666f72206e6f6e657860008301527f697374656e7420746f6b656e00000000000000000000000000000000000000006020830152604082019050919050565b60006200279e60388362002ff9565b91507f4552433732313a20617070726f76652063616c6c6572206973206e6f74206f7760008301527f6e6572206e6f7220617070726f76656420666f7220616c6c00000000000000006020830152604082019050919050565b600062002806602a8362002ff9565b91507f4552433732313a2062616c616e636520717565727920666f7220746865207a6560008301527f726f2061646472657373000000000000000000000000000000000000000000006020830152604082019050919050565b60006200286e60298362002ff9565b91507f4552433732313a206f776e657220717565727920666f72206e6f6e657869737460008301527f656e7420746f6b656e00000000000000000000000000000000000000000000006020830152604082019050919050565b6000620028d660208362002ff9565b91507f4552433732313a206d696e7420746f20746865207a65726f20616464726573736000830152602082019050919050565b600062002918602c8362002ff9565b91507f4552433732313a20617070726f76656420717565727920666f72206e6f6e657860008301527f697374656e7420746f6b656e00000000000000000000000000000000000000006020830152604082019050919050565b60006200298060298362002ff9565b91507f4552433732313a207472616e73666572206f6620746f6b656e2074686174206960008301527f73206e6f74206f776e00000000000000000000000000000000000000000000006020830152604082019050919050565b6000620029e8602f8362002ff9565b91507f4552433732314d657461646174613a2055524920717565727920666f72206e6f60008301527f6e6578697374656e7420746f6b656e00000000000000000000000000000000006020830152604082019050919050565b600062002a5060038362002ff9565b91507f46525400000000000000000000000000000000000000000000000000000000006000830152602082019050919050565b600062002a9260218362002ff9565b91507f4552433732313a20617070726f76616c20746f2063757272656e74206f776e6560008301527f72000000000000000000000000000000000000000000000000000000000000006020830152604082019050919050565b600062002afa60318362002ff9565b91507f4552433732313a207472616e736665722063616c6c6572206973206e6f74206f60008301527f776e6572206e6f7220617070726f7665640000000000000000000000000000006020830152604082019050919050565b62002b5e8162003119565b82525050565b600062002b72828462002485565b915081905092915050565b600062002b8b828562002548565b915062002b99828462002548565b91508190509392505050565b600060208201905062002bbc6000830184620023e1565b92915050565b600060808201905062002bd96000830187620023e1565b62002be86020830186620023e1565b62002bf7604083018562002b53565b818103606083015262002c0b818462002403565b905095945050505050565b600060808201905062002c2d6000830187620023e1565b62002c3c6020830186620023e1565b62002c4b604083018562002b53565b62002c5a606083018462002b53565b95945050505050565b600060608201905062002c7a6000830186620023e1565b62002c89602083018562002b53565b62002c98604083018462002b53565b949350505050565b600060208201905062002cb76000830184620023f2565b92915050565b6000602082019050818103600083015262002cd9818462002444565b905092915050565b6000602082019050818103600083015262002cfc81620025d3565b9050919050565b6000602082019050818103600083015262002d1e816200263b565b9050919050565b6000602082019050818103600083015262002d40816200267d565b9050919050565b6000602082019050818103600083015262002d6281620026e5565b9050919050565b6000602082019050818103600083015262002d848162002727565b9050919050565b6000602082019050818103600083015262002da6816200278f565b9050919050565b6000602082019050818103600083015262002dc881620027f7565b9050919050565b6000602082019050818103600083015262002dea816200285f565b9050919050565b6000602082019050818103600083015262002e0c81620028c7565b9050919050565b6000602082019050818103600083015262002e2e8162002909565b9050919050565b6000602082019050818103600083015262002e508162002971565b9050919050565b6000602082019050818103600083015262002e7281620029d9565b9050919050565b6000602082019050818103600083015262002e948162002a83565b9050919050565b6000602082019050818103600083015262002eb68162002aeb565b9050919050565b600060208201905062002ed4600083018462002b53565b92915050565b600060608201905062002ef1600083018562002b53565b818103602083015262002f058184620024bc565b9050818103604083015262002f1a8162002a41565b90509392505050565b6000604051905081810181811067ffffffffffffffff8211171562002f4d5762002f4c620031fc565b5b8060405250919050565b600067ffffffffffffffff82111562002f755762002f74620031fc565b5b601f19601f8301169050602081019050919050565b600067ffffffffffffffff82111562002fa85762002fa7620031fc565b5b601f19601f8301169050602081019050919050565b60008190508160005260206000209050919050565b600081519050919050565b600081519050919050565b600082825260208201905092915050565b600082825260208201905092915050565b600081905092915050565b6000620030228262003119565b91506200302f8362003119565b9250827fffffffffffffffffffffffffffffffffffffffffffffffffffffffffffffffff038211156200306757620030666200319e565b5b828201905092915050565b60006200307f8262003119565b91506200308c8362003119565b925082821015620030a257620030a16200319e565b5b828203905092915050565b6000620030ba82620030f9565b9050919050565b60008115159050919050565b60007fffffffff0000000000000000000000000000000000000000000000000000000082169050919050565b600073ffffffffffffffffffffffffffffffffffffffff82169050919050565b6000819050919050565b82818337600083830152505050565b60005b838110156200315257808201518184015260208101905062003135565b8381111562003162576000848401525b50505050565b600060028204905060018216806200318157607f821691505b60208210811415620031985762003197620031cd565b5b50919050565b7f4e487b7100000000000000000000000000000000000000000000000000000000600052601160045260246000fd5b7f4e487b7100000000000000000000000000000000000000000000000000000000600052602260045260246000fd5b7f4e487b7100000000000000000000000000000000000000000000000000000000600052604160045260246000fd5b6000601f19601f8301169050919050565b6200324781620030ad565b81146200325357600080fd5b50565b6200326181620030c1565b81146200326d57600080fd5b50565b6200327b81620030cd565b81146200328757600080fd5b50565b620032958162003119565b8114620032a157600080fd5b5056fe60806040523480156200001157600080fd5b5060405162001c4838038062001c488339818101604052810190620000379190620001b2565b8260058190555081600390805190602001906200005692919062000079565b5080600490805190602001906200006f92919062000079565b505050506200038f565b8280546200008790620002e1565b90600052602060002090601f016020900481019282620000ab5760008555620000f7565b82601f10620000c657805160ff1916838001178555620000f7565b82800160010185558215620000f7579182015b82811115620000f6578251825591602001919060010190620000d9565b5b5090506200010691906200010a565b5090565b5b80821115620001255760008160009055506001016200010b565b5090565b6000620001406200013a846200026e565b6200023a565b9050828152602081018484840111156200015957600080fd5b62000166848285620002ab565b509392505050565b600082601f8301126200018057600080fd5b81516200019284826020860162000129565b91505092915050565b600081519050620001ac8162000375565b92915050565b600080600060608486031215620001c857600080fd5b6000620001d8868287016200019b565b935050602084015167ffffffffffffffff811115620001f657600080fd5b62000204868287016200016e565b925050604084015167ffffffffffffffff8111156200022257600080fd5b62000230868287016200016e565b9150509250925092565b6000604051905081810181811067ffffffffffffffff8211171562000264576200026362000346565b5b8060405250919050565b600067ffffffffffffffff8211156200028c576200028b62000346565b5b601f19601f8301169050602081019050919050565b6000819050919050565b60005b83811015620002cb578082015181840152602081019050620002ae565b83811115620002db576000848401525b50505050565b60006002820490506001821680620002fa57607f821691505b6020821081141562000311576200031062000317565b5b50919050565b7f4e487b7100000000000000000000000000000000000000000000000000000000600052602260045260246000fd5b7f4e487b7100000000000000000000000000000000000000000000000000000000600052604160045260246000fd5b6200038081620002a1565b81146200038c57600080fd5b50565b6118a9806200039f6000396000f3fe608060405234801561001057600080fd5b50600436106100f55760003560e01c806370a0823111610097578063a457c2d711610066578063a457c2d71461029c578063a9059cbb146102cc578063b3cea217146102fc578063dd62ed3e1461031a576100f5565b806370a08231146102145780637776afa01461024457806395d89b41146102605780639dfde2011461027e576100f5565b806318160ddd116100d357806318160ddd1461017857806323b872dd14610196578063313ce567146101c657806339509351146101e4576100f5565b806306fdde03146100fa578063095ea7b3146101185780630cde7cc014610148575b600080fd5b61010261034a565b60405161010f919061151e565b60405180910390f35b610132600480360381019061012d9190611108565b6103dc565b60405161013f9190611503565b60405180910390f35b610162600480360381019061015d91906110a5565b6103fa565b60405161016f9190611503565b60405180910390f35b6101806105a9565b60405161018d9190611640565b60405180910390f35b6101b060048036038101906101ab9190611056565b6105b3565b6040516101bd9190611503565b60405180910390f35b6101ce6106c6565b6040516101db919061165b565b60405180910390f35b6101fe60048036038101906101f99190611108565b6106cf565b60405161020b9190611503565b60405180910390f35b61022e60048036038101906102299190610ff1565b61077b565b60405161023b9190611640565b60405180910390f35b61025e60048036038101906102599190611144565b6107c3565b005b610268610931565b604051610275919061151e565b60405180910390f35b6102866109c3565b6040516102939190611640565b60405180910390f35b6102b660048036038101906102b19190611108565b6109cd565b6040516102c39190611503565b60405180910390f35b6102e660048036038101906102e19190611108565b610ac1565b6040516102f39190611503565b60405180910390f35b610304610adf565b6040516103119190611640565b60405180910390f35b610334600480360381019061032f919061101a565b610ae9565b6040516103419190611640565b60405180910390f35b606060038054610359906117a4565b80601f0160208091040260200160405190810160405280929190818152602001828054610385906117a4565b80156103d25780601f106103a7576101008083540402835291602001916103d2565b820191906000526020600020905b8154815290600101906020018083116103b557829003601f168201915b5050505050905090565b60006103f06103e9610b70565b8484610b78565b6001905092915050565b6000610407858585610d43565b6000600160008773ffffffffffffffffffffffffffffffffffffffff1673ffffffffffffffffffffffffffffffffffffffff1681526020019081526020016000206000610452610b70565b73ffffffffffffffffffffffffffffffffffffffff1673ffffffffffffffffffffffffffffffffffffffff1681526020019081526020016000205490506000600160008873ffffffffffffffffffffffffffffffffffffffff1673ffffffffffffffffffffffffffffffffffffffff16815260200190815260200160002060006104da610b70565b73ffffffffffffffffffffffffffffffffffffffff1673ffffffffffffffffffffffffffffffffffffffff1681526020019081526020016000205490508482101561055a576040517f08c379a0000000000000000000000000000000000000000000000000000000008152600401610551906115a0565b60405180910390fd5b61057787610566610b70565b878561057291906116e8565b610b78565b61059486610583610b70565b878461058f9190611692565b610b78565b83600681905550600192505050949350505050565b6000600254905090565b60006105c0848484610d43565b6000600160008673ffffffffffffffffffffffffffffffffffffffff1673ffffffffffffffffffffffffffffffffffffffff168152602001908152602001600020600061060b610b70565b73ffffffffffffffffffffffffffffffffffffffff1673ffffffffffffffffffffffffffffffffffffffff1681526020019081526020016000205490508281101561068b576040517f08c379a0000000000000000000000000000000000000000000000000000000008152600401610682906115a0565b60405180910390fd5b6106a885610697610b70565b85846106a391906116e8565b610b78565b6106ba846106b4610b70565b85610b78565b60019150509392505050565b60006012905090565b60006107716106dc610b70565b8484600160006106ea610b70565b73ffffffffffffffffffffffffffffffffffffffff1673ffffffffffffffffffffffffffffffffffffffff16815260200190815260200160002060008873ffffffffffffffffffffffffffffffffffffffff1673ffffffffffffffffffffffffffffffffffffffff1681526020019081526020016000205461076c9190611692565b610b78565b6001905092915050565b60008060008373ffffffffffffffffffffffffffffffffffffffff1673ffffffffffffffffffffffffffffffffffffffff168152602001908152602001600020549050919050565b600073ffffffffffffffffffffffffffffffffffffffff168373ffffffffffffffffffffffffffffffffffffffff161415610833576040517f08c379a000000000000000000000000000000000000000000000000000000000815260040161082a90611620565b60405180910390fd5b61083f60008484610fc2565b81600260008282546108519190611692565b92505081905550816000808573ffffffffffffffffffffffffffffffffffffffff1673ffffffffffffffffffffffffffffffffffffffff16815260200190815260200160002060008282546108a69190611692565b925050819055506108bf836108b9610b70565b84610b78565b806006819055508273ffffffffffffffffffffffffffffffffffffffff16600073ffffffffffffffffffffffffffffffffffffffff167fddf252ad1be2c89b69c2b068fc378daa952ba7f163c4a11628f55a4df523b3ef846040516109249190611640565b60405180910390a3505050565b606060048054610940906117a4565b80601f016020809104026020016040519081016040528092919081815260200182805461096c906117a4565b80156109b95780601f1061098e576101008083540402835291602001916109b9565b820191906000526020600020905b81548152906001019060200180831161099c57829003601f168201915b5050505050905090565b6000600654905090565b600080600160006109dc610b70565b73ffffffffffffffffffffffffffffffffffffffff1673ffffffffffffffffffffffffffffffffffffffff16815260200190815260200160002060008573ffffffffffffffffffffffffffffffffffffffff1673ffffffffffffffffffffffffffffffffffffffff16815260200190815260200160002054905082811015610a99576040517f08c379a0000000000000000000000000000000000000000000000000000000008152600401610a9090611600565b60405180910390fd5b610ab6610aa4610b70565b858584610ab191906116e8565b610b78565b600191505092915050565b6000610ad5610ace610b70565b8484610d43565b6001905092915050565b6000600554905090565b6000600160008473ffffffffffffffffffffffffffffffffffffffff1673ffffffffffffffffffffffffffffffffffffffff16815260200190815260200160002060008373ffffffffffffffffffffffffffffffffffffffff1673ffffffffffffffffffffffffffffffffffffffff16815260200190815260200160002054905092915050565b600033905090565b600073ffffffffffffffffffffffffffffffffffffffff168373ffffffffffffffffffffffffffffffffffffffff161415610be8576040517f08c379a0000000000000000000000000000000000000000000000000000000008152600401610bdf906115e0565b60405180910390fd5b600073ffffffffffffffffffffffffffffffffffffffff168273ffffffffffffffffffffffffffffffffffffffff161415610c58576040517f08c379a0000000000000000000000000000000000000000000000000000000008152600401610c4f90611560565b60405180910390fd5b80600160008573ffffffffffffffffffffffffffffffffffffffff1673ffffffffffffffffffffffffffffffffffffffff16815260200190815260200160002060008473ffffffffffffffffffffffffffffffffffffffff1673ffffffffffffffffffffffffffffffffffffffff168152602001908152602001600020819055508173ffffffffffffffffffffffffffffffffffffffff168373ffffffffffffffffffffffffffffffffffffffff167f8c5be1e5ebec7d5bd14f71427d1e84f3dd0314c0f7b2291e5b200ac8c7c3b92583604051610d369190611640565b60405180910390a3505050565b600073ffffffffffffffffffffffffffffffffffffffff168373ffffffffffffffffffffffffffffffffffffffff161415610db3576040517f08c379a0000000000000000000000000000000000000000000000000000000008152600401610daa906115c0565b60405180910390fd5b600073ffffffffffffffffffffffffffffffffffffffff168273ffffffffffffffffffffffffffffffffffffffff161415610e23576040517f08c379a0000000000000000000000000000000000000000000000000000000008152600401610e1a90611540565b60405180910390fd5b610e2e838383610fc2565b60008060008573ffffffffffffffffffffffffffffffffffffffff1673ffffffffffffffffffffffffffffffffffffffff16815260200190815260200160002054905081811015610eb4576040517f08c379a0000000000000000000000000000000000000000000000000000000008152600401610eab90611580565b60405180910390fd5b8181610ec091906116e8565b6000808673ffffffffffffffffffffffffffffffffffffffff1673ffffffffffffffffffffffffffffffffffffffff16815260200190815260200160002081905550816000808573ffffffffffffffffffffffffffffffffffffffff1673ffffffffffffffffffffffffffffffffffffffff1681526020019081526020016000206000828254610f509190611692565b925050819055508273ffffffffffffffffffffffffffffffffffffffff168473ffffffffffffffffffffffffffffffffffffffff167fddf252ad1be2c89b69c2b068fc378daa952ba7f163c4a11628f55a4df523b3ef84604051610fb49190611640565b60405180910390a350505050565b505050565b600081359050610fd681611845565b92915050565b600081359050610feb8161185c565b92915050565b60006020828403121561100357600080fd5b600061101184828501610fc7565b91505092915050565b6000806040838503121561102d57600080fd5b600061103b85828601610fc7565b925050602061104c85828601610fc7565b9150509250929050565b60008060006060848603121561106b57600080fd5b600061107986828701610fc7565b935050602061108a86828701610fc7565b925050604061109b86828701610fdc565b9150509250925092565b600080600080608085870312156110bb57600080fd5b60006110c987828801610fc7565b94505060206110da87828801610fc7565b93505060406110eb87828801610fdc565b92505060606110fc87828801610fdc565b91505092959194509250565b6000806040838503121561111b57600080fd5b600061112985828601610fc7565b925050602061113a85828601610fdc565b9150509250929050565b60008060006060848603121561115957600080fd5b600061116786828701610fc7565b935050602061117886828701610fdc565b925050604061118986828701610fdc565b9150509250925092565b61119c8161172e565b82525050565b60006111ad82611676565b6111b78185611681565b93506111c7818560208601611771565b6111d081611834565b840191505092915050565b60006111e8602383611681565b91507f45524332303a207472616e7366657220746f20746865207a65726f206164647260008301527f65737300000000000000000000000000000000000000000000000000000000006020830152604082019050919050565b600061124e602283611681565b91507f45524332303a20617070726f766520746f20746865207a65726f20616464726560008301527f73730000000000000000000000000000000000000000000000000000000000006020830152604082019050919050565b60006112b4602683611681565b91507f45524332303a207472616e7366657220616d6f756e742065786365656473206260008301527f616c616e636500000000000000000000000000000000000000000000000000006020830152604082019050919050565b600061131a602883611681565b91507f45524332303a207472616e7366657220616d6f756e742065786365656473206160008301527f6c6c6f77616e63650000000000000000000000000000000000000000000000006020830152604082019050919050565b6000611380602583611681565b91507f45524332303a207472616e736665722066726f6d20746865207a65726f20616460008301527f64726573730000000000000000000000000000000000000000000000000000006020830152604082019050919050565b60006113e6602483611681565b91507f45524332303a20617070726f76652066726f6d20746865207a65726f2061646460008301527f72657373000000000000000000000000000000000000000000000000000000006020830152604082019050919050565b600061144c602583611681565b91507f45524332303a2064656372656173656420616c6c6f77616e63652062656c6f7760008301527f207a65726f0000000000000000000000000000000000000000000000000000006020830152604082019050919050565b60006114b2601f83611681565b91507f45524332303a206d696e7420746f20746865207a65726f2061646472657373006000830152602082019050919050565b6114ee8161175a565b82525050565b6114fd81611764565b82525050565b60006020820190506115186000830184611193565b92915050565b6000602082019050818103600083015261153881846111a2565b905092915050565b60006020820190508181036000830152611559816111db565b9050919050565b6000602082019050818103600083015261157981611241565b9050919050565b60006020820190508181036000830152611599816112a7565b9050919050565b600060208201905081810360008301526115b98161130d565b9050919050565b600060208201905081810360008301526115d981611373565b9050919050565b600060208201905081810360008301526115f9816113d9565b9050919050565b600060208201905081810360008301526116198161143f565b9050919050565b60006020820190508181036000830152611639816114a5565b9050919050565b600060208201905061165560008301846114e5565b92915050565b600060208201905061167060008301846114f4565b92915050565b600081519050919050565b600082825260208201905092915050565b600061169d8261175a565b91506116a88361175a565b9250827fffffffffffffffffffffffffffffffffffffffffffffffffffffffffffffffff038211156116dd576116dc6117d6565b5b828201905092915050565b60006116f38261175a565b91506116fe8361175a565b925082821015611711576117106117d6565b5b828203905092915050565b60006117278261173a565b9050919050565b60008115159050919050565b600073ffffffffffffffffffffffffffffffffffffffff82169050919050565b6000819050919050565b600060ff82169050919050565b60005b8381101561178f578082015181840152602081019050611774565b8381111561179e576000848401525b50505050565b600060028204905060018216806117bc57607f821691505b602082108114156117d0576117cf611805565b5b50919050565b7f4e487b7100000000000000000000000000000000000000000000000000000000600052601160045260246000fd5b7f4e487b7100000000000000000000000000000000000000000000000000000000600052602260045260246000fd5b6000601f19601f8301169050919050565b61184e8161171c565b811461185957600080fd5b50565b6118658161175a565b811461187057600080fd5b5056fea264697066735822122015ea172e87df7ac3480eed02047c528680aff136148e57a3492b8e594452ed7864736f6c63430008000033a2646970667358221220164fd1fb11fbba422c2b30f826abed3b325ead9188f1e01d800a45c8a106dcd364736f6c63430008000033",
  "immutableReferences": {},
  "source": "// SPDX-License-Identifier: MIT\npragma solidity ^0.8.0;\n\nimport \"../node_modules/@openzeppelin/contracts/utils/Counters.sol\";\nimport \"../node_modules/@openzeppelin/contracts/token/ERC721/ERC721.sol\";\nimport \"../node_modules/@openzeppelin/contracts/access/Ownable.sol\";\nimport \"./cERC20.sol\";\nimport \"./EstateFractions.sol\";\n\ncontract EstateToken is ERC721 {\n\n    using Counters for Counters.Counter;\n    using Strings for uint;\n\n    Counters.Counter tokenId;\n    mapping(uint256 => string) tokenURIs;\n    mapping(string => uint8) tokenCheck;\n    mapping(uint256 => address) tokenContracts;\n    \n    string baseURI = \"\";\n\n    constructor() ERC721(\"Estate\", \"EST\") {}\n\n    function setTokenURI(uint256 _tokenId, string memory _tokenURI) private {\n        tokenURIs[_tokenId] = _tokenURI;\n    }\n\n    function setNewBase(string memory _newBase) private {\n        baseURI = _newBase;\n    }\n\n    function _baseURI() internal view virtual override returns (string memory) {\n        return baseURI;\n    }\n\n    function tokenURI(uint256 _tokenId) public view virtual override returns (string memory) {\n        require(_exists(_tokenId), \"ERC721Metadata: URI query for nonexistent token\");\n        return string(abi.encodePacked(baseURI, tokenURIs[_tokenId])); \n    }\n\n    function getId() public view returns (uint) {\n        return tokenId.current();\n    }\n\n    function mint(address _lister, string memory ipfs_hash, string memory _metadata) public {\n        require(tokenCheck[ipfs_hash] != 1);\n        tokenCheck[ipfs_hash] = 1;\n        tokenId.increment();\n        uint newID = tokenId.current();\n        _safeMint(_lister, newID);\n        setTokenURI(newID, _metadata);\n    }\n\n    function setTokenFractions(uint _tokenId, uint _amount, uint _price) public {\n        cERC20 newContract = new cERC20(_tokenId, tokenURIs[_tokenId],  \"FRT\");\n        address ContractAddress = address(newContract);\n        tokenContracts[_tokenId] = ContractAddress;\n        newContract._mint(ownerOf(_tokenId), _amount, _price);\n    }\n\n    function tranferTokens(address _from, address _to, uint _tokenId, uint _amount, uint _newPrice) public {\n        EstateFractions FractionContract = EstateFractions(tokenContracts[_tokenId]);\n        FractionContract.transferAndSet(_from, _to, _amount, _newPrice);\n    }\n\n    function getContract(uint _tokenId) public view returns (address) {\n        return tokenContracts[_tokenId];\n    }\n\n    function getUserBalance(address _user, uint _tokenId) public view returns (uint) {\n        EstateFractions FractionContract = EstateFractions(tokenContracts[_tokenId]);\n        return FractionContract.balanceOf(_user);\n    }\n\n    function getTokenURI(uint _tokenId) public view returns (string memory) {\n        EstateFractions FractionContract = EstateFractions(tokenContracts[_tokenId]);\n        return FractionContract.name();\n    }\n\n    function getTokenPrice(uint _tokenId) public view returns (uint) {\n        EstateFractions FractionContract = EstateFractions(tokenContracts[_tokenId]);\n        return FractionContract.Price();\n    }\n}\n\n",
  "sourcePath": "/home/decfox/Projects/Icarus/contracts/EstateToken.sol",
  "compiler": {
    "name": "solc",
    "version": "0.8.0+commit.c7dfd78e.Emscripten.clang"
  },
  "schemaVersion": "3.4.1",
  "updatedAt": "2021-06-28T02:52:43.988Z",
  "devdoc": {
    "kind": "dev",
    "methods": {
      "approve(address,uint256)": {
        "details": "See {IERC721-approve}."
      },
      "balanceOf(address)": {
        "details": "See {IERC721-balanceOf}."
      },
      "getApproved(uint256)": {
        "details": "See {IERC721-getApproved}."
      },
      "isApprovedForAll(address,address)": {
        "details": "See {IERC721-isApprovedForAll}."
      },
      "name()": {
        "details": "See {IERC721Metadata-name}."
      },
      "ownerOf(uint256)": {
        "details": "See {IERC721-ownerOf}."
      },
      "safeTransferFrom(address,address,uint256)": {
        "details": "See {IERC721-safeTransferFrom}."
      },
      "safeTransferFrom(address,address,uint256,bytes)": {
        "details": "See {IERC721-safeTransferFrom}."
      },
      "setApprovalForAll(address,bool)": {
        "details": "See {IERC721-setApprovalForAll}."
      },
      "supportsInterface(bytes4)": {
        "details": "See {IERC165-supportsInterface}."
      },
      "symbol()": {
        "details": "See {IERC721Metadata-symbol}."
      },
      "transferFrom(address,address,uint256)": {
        "details": "See {IERC721-transferFrom}."
      }
    },
    "version": 1
  },
  "userdoc": {
    "kind": "user",
    "methods": {},
    "version": 1
  }
}